:020000040000FA
:10000000286D0010650200006D0200006F02000004
:100010007102000073020000750200000000000081
:100020000000000000000000000000007702000057
:100030007902000000000000732401007F360000F8
:100040007F0200007F020000F3080100AB8900007E
:10005000698800000F820000576F0000FF720000E7
:100060002B7600007F0200007F0200007F0200006C
:100070007F0200007F0200007F0200007F0200007C
:100080007F0200007F0200007F0200007F0200006C
:100090007F0200007F0200007F0200007F0200005C
:1000A0007F0200007F0200007F0200007F0200004C
:1000B0007F0200007F0200007F0200007F0200003C
:1000C0007F0200007F0200007F02000000F002F8C3
:1000D00000F0B0F80AA090E8000C82448344AAF132
:1000E0000107DA4501D100F0A5F8AFF2090EBAE830
:1000F0000F0013F0010F18BFFB1A43F0010318475C
:1001000098390100B83901000A444FF0000C10F88A
:10011000013B13F0070408BF10F8014B1D1108BF85
:1001200010F8015B641E05D010F8016B641E01F825
:10013000016BF9D113F0080F1EBF10F8014BAD1C75
:100140000C1B09D16D1E58BF01F801CBFAD505E093
:1001500014F8016B01F8016B6D1EF9D59142D6D3ED
:10016000704700000023002400250026103A28BF15
:1001700078C1FBD8520728BF30C148BF0B60704719
:100180006E2910F09187702911F0D480662912F041
:100190007086652912F06D86672912F06A866129DA
:1001A000AFF3008003681B0A28BF41F08001692972
:1001B00010F03E87642910F03B87752910F03887CE
:1001C0006F2911F05F80782911F0A080E92910F0E3
:1001D000F787E42910F0F487F52910F0F187EF296B
:1001E00011F05C80F82911F09F800368DB0928BFBB
:1001F00041F08001632911F03684732911F03B84AA
:10020000E32911F04684F32911F04B840020704754
:100210001FB511F08FFC04000020002112F074F9CA
:10022000401C60600020002112F084F9E0601FBDD6
:1002300010B510BD11F059FC1146FFF7E9FF03F0AE
:10024000ADFA11F02DFD03B4FFF7F2FF03BC11F07E
:100250002DFD704770477047704770477047704773
:10026000704700000948804709480047FEE7FEE75D
:10027000FEE7FEE7FEE7FEE7FEE7FEE7FEE7FEE756
:1002800004480549034A054B7047000055390000F2
:10029000CD000000286B0010286D0010286B0010A6
:1002A00000BFFEE710B50A2004F084FC012004F032
:1002B000E5FC012004F000FD4FF0FF301F21002875
:1002C00007DACA06140E064A00F00F031B1FD454A7
:1002D00003E0CA06130E034A135400BF10BD00000A
:1002E00018ED00E000E400E07047704770470A68CE
:1002F00002F8010B0A60704770470000FFFFFFFF24
:100300000146002002E0491C421CD0B20A78002AB3
:10031000F9D170472DE9F04105460E4614460027F5
:10032000FA48007820B1112020700020BDE8F0814B
:100330002878012808D0022807D0032802D00428F2
:1003400004D100E000BF00BF00BF03E00120207027
:100350000020EBE700BF12F06BF8074668693060D9
:100360003068FFF7CDFF8046384612F065F8002070
:1003700020704046DAE72DE9F04105460E46144666
:100380000027E248007818B112202070BDE8F08103
:100390002878012808D0022807D0032802D0042892
:1003A00004D100E000BF00BF00BF02E001202070C8
:1003B000ECE700BF12F03CF807466E61384612F0D9
:1003C0003BF80020207000BFE0E7F0B5024612F8CD
:1003D000384F95785678A2F138020B4618680FE02E
:1003E00000F10B073F5DB74300F10B0C0CF80470F4
:1003F00067463F5D17B9877AAF4387721B1D186840
:100400000028EDD1F0BDC249C24A1278885CC249C9
:10041000095CBF4A515C01EBC001C04A11707047D2
:1004200010B5002412F004F80446B8480078F8B972
:10043000BB480078E0B9FFF7E6FFBA48B74909784A
:1004400050F82100B8490860B4480078B7490978E5
:1004500088420DD0B4480068C06B401CB24909689E
:10046000C863B3480068401CB149086011F0F7FF49
:10047000204611F0E1FF10BD70B501460024AD4DDE
:100480002D68EC61AB4C246821620B4618681BE0B8
:10049000A84C246894F8385000F10B04645DA54D15
:1004A0002D6895F839502C43A24D2D6895F8386089
:1004B00000F10B05AC55847A9E4D2D6895F83A50A5
:1004C0002C4384721B1D18680028E1D1994C2468C4
:1004D00094F83820904CA45C964D2D6895F83950CE
:1004E000AC438D4DAC542C46A45C44B9914C24686B
:1004F00094F83A50874C2478AC43864D2C7070BDEC
:100500002DE9FF4F83B083460E461546DDF8408047
:10051000002000903060D946D9F8004018E02078DB
:10052000062807D2DFE800F00604050307080AE002
:1005300009E008E000BF00BF012088F800000020AB
:1005400007B0BDE8F08F00BF09F10409D9F80040F9
:10055000002CE4D16D48007820B1022088F800001A
:100560000020EDE76E48007820B10D2088F80000EB
:100570000020E5E711F05CFF009000200290824629
:100580000190D946D9F800405DE02078062849D28C
:10059000DFE800F048172A03494A208960B1208922
:1005A000401E208110C601200290002001C50AF1E2
:1005B00001001FFA80FA03E0019840F00100019069
:1005C0003CE0606858B1606801C50020606010C6FA
:1005D000012002900AF101001FFA80FA03E001985D
:1005E00040F00200019029E06768F88AA8B13969F3
:1005F000081D3861086801C5B9683869884201D1A9
:1006000078683861F88A401EF88210C6012002908E
:100610000AF101001FFA80FA03E0019840F004009B
:1006200001900BE000BF00BF009811F005FF002013
:100630003060012088F80000504681E700BF09F1D2
:100640000409D9F80040002C9FD10298012809D153
:1006500000203060009811F0EFFE002088F80000C4
:1006600050466DE73348006890F83400019941F036
:10067000800108432F49096881F8340000202D4982
:10068000096881F835002B490698096808635846BF
:10069000FFF7F2FE009811F0CFFEFFF7C1FE11F058
:1006A000C7FE00902348006890F8350020B101286B
:1006B0001BD0022818D100E000BF1E480068C469A2
:1006C0003CB110C6002030600AF101001FFA80FA28
:1006D00009E001201749096881F835005946154895
:1006E0000068FFF772FE06E000BF59461148006837
:1006F000FFF76BFE00BF00BF0E48006890F83500A2
:10070000D0B1012841D002283ED137E019000010B5
:10071000762E01001D0000101E0000101C000010AD
:100720001A000010500F0010340000101B000010C1
:10073000000000102C000010207806280DD2DFE801
:1007400000F00C0607030D0E002001C511E000BFEC
:10075000FD480068406A01C50BE000BF00BF00987B
:1007600011F06AFE00203060012088F80000504639
:10077000E6E600BF002088F800000CE0002001C57C
:100780000E2088F8000006E000BF002001C50A2006
:1007900088F8000000BF00BF0020EB49096881F81D
:1007A0003400E949096881F83500E7490968C861FA
:1007B000E54909680862E44909684862009811F04F
:1007C0003BFE5046BCE67CB5002514E06946284651
:1007D00002F0F8F8064666B9DC4850F8254044B106
:1007E000012C06D0D4E9020100EB8100A06401983D
:1007F000E064681CC5B23F2DE8D97CBD002400BF71
:1008000002E0142002F0E8F9D14800780028F8D07E
:10081000D04800686421B0FBF1F0CE49086008467A
:10082000006828B90020CC490870FF2002F00CF9BC
:1008300000BF11F0FDFD0446C8480068C8490860C3
:100840000020C6490860204611F0F6FDC448006843
:10085000C0490968B0FBF1F0C0F16400BE490870FE
:1008600002F0A2FEFFF7AFFF0A2002F0B5F9E0E7C1
:1008700000B587B0032000218022BA4BCDE90132B8
:10088000CDE903104FF6FE703E23B74A0090AFF259
:10089000930001F0A6FE06AAB4A13E2002F011F8D2
:1008A00007B000BD002400BF00BF11F0C1FD044629
:1008B000AA480068401CA9490860204611F0BCFD08
:1008C00002F068FEF1E700B587B003200021802226
:1008D000AA4BCDE90132CDE903104FF6FF703F235B
:1008E000A74A0090AFF2430001F07BFE06AAA5A143
:1008F0003F2001F0E6FF07B000BD04E0002200F851
:10090000012B4A1E91B20029F8D1704770B5F02131
:10091000A048FFF7F2FF002411E0601C85B204EB51
:1009200044009C4901EBC00305EB450001EBC00608
:10093000002018705E6098A05861601C84B2092C79
:10094000EBD304EB4400934901EBC0030020187083
:10095000586091A0586108469049086070BD70B514
:100960004FF4F2618E48FFF7C8FF4FF4807177486B
:10097000FFF7C3FF002413E0601CC5B204EB440082
:1009800000EBC400864901EBC00305EB450000EB1A
:10099000C50001EBC0065E617FA01865601CC4B293
:1009A000152CE9D304EB440000EBC4007C4901EBB7
:1009B000C0030020586178A01865002079490860BC
:1009C00077487949086070BD0021784A117000208D
:1009D00004E00021764A1154411CC8B20828F8D31B
:1009E0000021744A1170744A1170744A1160564A99
:1009F000116070470020724908607249087072499E
:100A00000870724908707249087072490860534949
:100A10000860534908604F4908604D4908707047A5
:100A200010B502F09BFDFFF7E5FFFFF7CDFFFFF7E5
:100A300096FFFFF76BFF00F0C6FE00F0B6FF01F077
:100A4000B8FAFFF740FFFFF713FF02F04FFC02F088
:100A500094FD02F0D5FC10BD5D480078012808D156
:100A600058480078FF2804D256480078401C554961
:100A70000870704710B5002455480078012830D11F
:100A800011F0D6FC04464F48007820B14D4800785C
:100A9000401E4C4908704B480078F8B94A48007825
:100AA000E0B9FFF7B0FC29484349097850F8210024
:100AB00042490860404800783E49097888420DD094
:100AC0003E480068C06B401C3C490968C863414807
:100AD0000068401C3F49086011F0C6FC204611F038
:100AE000ABFC10BD10B5002439480078012811D1A5
:100AF00011F09EFC04463348007840B93248007833
:100B0000FF2804D230480078401C2F490870204646
:100B100011F092FC10BD10B500242D48007801287A
:100B20006CD111F085FC04462748007850B1264866
:100B30000078401E244908700846007818B92148FA
:100B4000007849E057E052E02C000010500F0010F0
:100B500018000010100000100C00001028000010F9
:100B600014000010500B00104C0D001075432F4F57
:100B7000532D49492053746174000000500D00103A
:100B80004C0F001075432F4F532D49492049646C79
:100B900065000000100A00103F0000000400001073
:100BA0005010001038000010300000101D00001020
:100BB0001E0000101B0000101C000010340000106C
:100BC00048000010190000101A0000102700001043
:100BD000260000100000001028B9204611F02CFC5F
:100BE000FFF71EFC0AE0204611F026FC06E0204636
:100BF00011F022FC02E0204611F01EFC10BD10B5E1
:100C0000F048007890B9FFF7FEFBEF480078EF4915
:100C10000870EF48EC49097850F82100ED49086068
:100C200008460068EC49086011F009FC10BD10B5D9
:100C30000024022001F0D0FF11F0FAFB044600204E
:100C4000E6490860204611F0F7FB0A2001F0C4FFD6
:100C500011F0EEFB0446E1480068E149086001201C
:100C6000E0490870204611F0E7FB10BD70B5002682
:100C700002F0F4FC11F0DCFB0646DB480068401C87
:100C8000D9490860304611F0D7FBCE4800780128DA
:100C900057D1D648007820B1012804D0022809D1C4
:100CA00003E001250BE0002509E001250120CF49E3
:100CB000087004E001250020CC49087000BF00BF87
:100CC00005B970BDCA48046837E011F0B1FB0646AB
:100CD000206B70B3206B401E2063206B48BB94F8E0
:100CE000340010F0370F09D014F8340F00F0C800AA
:100CF000207001206070A4F1340402E0002084F828
:100D0000350094F8340010F0080F12D104F13804C3
:100D1000A078B849097840EA0100B64908702078FF
:100D2000B549085C617840EA010014F83819B24A04
:100D300050546469304611F07FFB94F836003F2828
:100D4000C3D100BFBDE740F223107047704710B514
:100D500090F8382001F10B039B5C90F83940A343D5
:100D600001F10B04A35423469B5C23B98B7A90F8C2
:100D70003A40A3438B7210BD2DE9F04F05460F4654
:100D800090469946A87A9D490E5C05F10B00805D5E
:100D900011F800B00BEBC60000F0FF0A8C4850F8C9
:100DA0002A40002004F12404E0602760207C20EA2F
:100DB0000800207484F81190207CA4F1240410F021
:100DC000080F0DD194F83A008A49097808438949F7
:100DD00008708948805D94F8391008438649885521
:100DE00029462046FFF7B3FF206A20B12046216A3A
:100DF000FFF7EBFAE5615046BDE8F08F10B5764A93
:100E00001268D061744A126892F8383000F10B020F
:100E1000D25C714B1B6893F839301A436E4B1B68D8
:100E200093F8384000F10B031A55827A6A4B1B681D
:100E300093F83A301A438272674A126892F838106F
:100E40006D4A525C644B1B6893F839309A436A4B85
:100E50005A541A46525C42B95F4A126892F83A30C4
:100E6000644A12789A43634B1A7010BD01460022FF
:100E70008A72002005E0002301F10B021354421C8A
:100E8000D0B20828F7D3704705E011F8013B00F80D
:100E9000013B531E9AB2002AF7D170472DE9F84F53
:100EA00005460F4690469946DDE90AAB00200090C2
:100EB00011F0BEFA009052480468002C7DD004F175
:100EC0001C0454F8080C4E490860009811F0B4FA5C
:100ED00044F81C7CA576002020766076606144F89A
:100EE00018BC44F810AC44F8148C0C9824F80C0C82
:100EF00024F80A9C0020E077E810207705F007002E
:100F0000E076217F01208840A077E17E01208840A3
:100F10006077002020606060E060A0602062A062D6
:100F20006062E0622063AFF290306063A4F11C0461
:100F30004FF0000606E0002104F1540040F82610AE
:100F4000701CC6B2002EF6D0204602F081FB20466F
:100F500002F014FB11F06CFA00901D4840F8254097
:100F60002348006860610020A0612148006810B13A
:100F70001F48006884611E48046004F13804A078AA
:100F80001C49097840EA01001A49087020781A497A
:100F9000085C617840EA010014F83819164A505488
:100FA0001848007800F1010016490870009811F007
:100FB00043FA0020BDE8F88FFFE7009811F03CFAF3
:100FC0004220F7E7260000101C0000101B00001054
:100FD000500F0010340000102C00001028000010EA
:100FE0001000001018000010480000103C00001015
:100FF000380000101D0000101E000010762E0100A9
:1010000030000010270000102DE9F05F04460F4665
:1010100091461E464FF0000B2078052804D0012091
:1010200030700020BDE8F09F09F0800ABAF1000F8F
:1010300004D029F080094FF0010801E04FF00008CA
:101040000020307011F0F4F98346B9F1000F2CD074
:10105000B9F1010F3BD0B9F1020F03D0B9F1030F81
:1010600046D111E0208900EA0705BD4206D1B8F15A
:10107000010F05D12089A843208101E07020307044
:10108000584611F0D9F93AE0208900EA070535B150
:10109000B8F1010F05D12089A843208101E070201B
:1010A0003070584611F0C8F929E0208927EA000578
:1010B000BD4206D1B8F1010F05D120892843208116
:1010C00001E070203070584611F0B6F917E0208921
:1010D00027EA000535B1B8F1010F05D12089284371
:1010E000208101E070203070584611F0A5F906E02B
:1010F000584611F0A1F900256F20307000BF00BFE5
:1011000028468FE72DE9F04106460D460027FD48A9
:10111000007820B1102028700020BDE8F08111F087
:1011200087F90746F848046884B100684068F649C2
:10113000086005202070268100206060F3A0E06038
:10114000384611F079F90020287004E0384611F093
:1011500073F9722028702046DFE730B501464A68EF
:1011600008682AB9CC68606028B10025456002E0B3
:10117000106000B142608B6800259D6230BDF0B503
:1011800006460F46B468002004F12C0460602780F6
:10119000207A00F0DF0020724FF000006072207AA9
:1011A000A4F12C04A8B904F13804A078D84909782E
:1011B00040EA0100D64908702078D649085C617879
:1011C00040EA010014F83819D24A50544FF0010592
:1011D00000E000253046FFF7C0FF2846F0BD2DE9AE
:1011E000F0470446894615464FF0000AC548007886
:1011F00020B10F2028702046BDE8F0872078052810
:1012000003D0012028702046F6E711F011F982463C
:10121000606808B1012700E00027B9F1000F03D092
:10122000B9F1010F3CD119E08FB9B8A0E0600020FE
:101230002070B5480068606000202081B2480460DA
:10124000504611F0F9F800202870002605E05046BD
:1012500011F0F2F849202870264628E0D4F80480DE
:1012600005E000214046FFF78AFFD8F80080B8F17A
:10127000000FF6D1A5A0E06000202070A248006811
:10128000606000202081A0480460504611F0D4F82E
:10129000012F01D1FFF7C4F800202870002606E0D6
:1012A000504611F0C9F807202870264600BF00BF3D
:1012B0003046A1E72DE9F04105460E4614460027C9
:1012C0009048007820B1112020700020BDE8F08106
:1012D00011F0AEF807462878052806D0384611F0F8
:1012E000ABF8012020700020F0E7E868306030683B
:1012F000FFF706F88046384611F09EF8002020706F
:101300004046E3E72DE9F04105460E461446002726
:101310007C48007818B112202070BDE8F08111F0EF
:1013200087F807462878052805D0384611F084F854
:1013300001202070F1E7EE60384611F07DF80020C2
:10134000207000BFE9E7F0B51446059E724F3F6874
:1013500097F8347047F02007DFF8BCC1DCF800C014
:101360008CF834700027DFF8B0C1DCF800C08CF8CE
:101370003570694F3F683E63674F3F68B9620C82C2
:101380008B74654F3F688F6047680F6000274F6020
:10139000C860456805B1696041605F4F3F6897F874
:1013A00038205C4FBF5CDFF870C1DCF800C09CF8EF
:1013B00039C027EA0C07DFF85CC10CF802706746F9
:1013C000BF5C5FB9544F3F6897F83AC0504F3F78C1
:1013D00027EA0C07DFF838C18CF80070F0BD2DE962
:1013E000F04F89B005460F4691469A46129E00205E
:1013F00002904448007828B102203070002009B0E3
:10140000BDE8F08F4548007818B10D2030700020FD
:10141000F5E72878052803D0012030700020EEE79A
:1014200009F0800BBBF1000F04D009F07F094FF0E9
:10143000010801E04FF0000810F0FAFF0290B9F146
:10144000000F4AD0B9F1010F78D0B9F1020F03D0E3
:10145000B9F1030F71D120E0288900EA0704BC42EA
:101460000FD1B8F1010F02D12889A04328812A4861
:1014700000688485029810F0DFFF0020307020465D
:10148000BDE74B463A4604A92846CDF800A0FFF731
:101490005AFF029810F0D0FF78E0288900EA07048C
:1014A0007CB1B8F1010F02D12889A04328811A48E4
:1014B00000688485029810F0BFFF0020307020463D
:1014C0009DE74B463A4604A92846CDF800A0FFF711
:1014D0003AFF029810F0B0FF58E0288927EA00048C
:1014E000BC421ED1B8F1010F02D1288920432881C6
:1014F000094800688485029810F09EFF0020307033
:1015000020467CE719000010080000103F00000092
:101510001D0000101E0000102C0000101A0000100A
:101520000CE04B463A4604A92846CDF800A0FFF748
:101530000AFF029810F080FF28E01FE0288927EAC0
:1015400000047CB1B8F1010F02D128892043288121
:10155000B04800688485029810F06EFF002030705B
:1015600020464CE74B463A4604A92846CDF800A051
:10157000FFF7E9FE029810F05FFF07E0029810F015
:101580005BFF00246F203070204638E700BFFEF775
:1015900047FF10F04DFF02909E48006890F835001C
:1015A00020B39C48006890F83500039000209949CA
:1015B000096881F8350004A8FFF7CFFD00209549A0
:1015C000096881F83400029810F036FF002403986F
:1015D000012805D0022802D10E20307003E000BFA0
:1015E0000A20307000BF00BF204608E78948006825
:1015F000848DB8F1010F1ED1B9F1000F0ED0B9F1F1
:10160000010F0CD0B9F1020F03D0B9F1030F0AD1C9
:1016100000E000BF2889A04328810BE000BF288993
:101620002043288106E0029810F006FF6F203070FA
:101630000020E4E600BF029810F0FEFE00203070AB
:101640002046DCE670B5002510F0F2FE0546714834
:101650000068848D284610F0EFFE204670BD2DE90D
:10166000FC5F0446894692461E4600200090207882
:10167000052804D0012030700020BDE8FC9F10F048
:10168000D7FE0090BAF1000F03D0BAF1010F0AD1D2
:1016900004E0208920EA090020810BE0208940EA4B
:1016A0000900208106E0009810F0C6FE712030701D
:1016B0000020E2E700BF4FF0000B656855E0A87C12
:1016C00040B3012838D0022802D0032844D111E0C9
:1016D0002089298A00EA0107288AB84209D13946B7
:1016E0002846FFF74CFD8046B8F1010F01D14FF0BD
:1016F000010B38E02089298A00EA01074FB13946F9
:101700002846FFF73CFD8046B8F1010F01D14FF0AC
:10171000010B28E0288A218920EA0107288AB8429B
:1017200009D139462846FFF72AFD8046B8F1010F56
:1017300001D14FF0010B16E0288A218920EA010728
:101740004FB139462846FFF71AFD8046B8F1010F20
:1017500001D14FF0010B06E0009810F06DFE6F20F4
:101760003070002089E700BF2D68002DA7D10098B8
:1017700010F062FEBBF1010F01D1FEF751FE10F037
:1017800057FE009020890190009810F055FE00202F
:101790003070019871E72DE9F04104460D460027AD
:1017A0002078052804D0012028700020BDE8F081B1
:1017B00010F03EFE07462689384610F03DFE002018
:1017C00028703046F2E72DE9F04150211248FFF72A
:1017D00094F800250EE0681C86B20F4800EB051453
:1017E00000EB0617002020706760AFF2E020E06099
:1017F000681C85B2042DEED3074800EB05140020C9
:1018000020706060AFF2FC20E0600348034908608C
:10181000BDE8F0812C000010000B00100800001043
:101820002DE9FC5F05460F4691469A460020009040
:1018300010F0FEFD00906F480468006820B16D480C
:10184000006840686B490860009810F0F5FD2CB9FD
:101850005A208AF800000020BDE8FC9FA8462E46CA
:10186000781E01904FF0000B05E04E44C8F8006070
:10187000B0460BF1010B01988345F6D30020C8F860
:101880000000256065602761E760C4F808908AF869
:1018900000002046E0E72DE9F04104460D46002710
:1018A00010F0C6FD0746206968B166683068606060
:1018B0002069401E2061384610F0BEFD00202870CF
:1018C0003046BDE8F081384610F0B6FD5D20287046
:1018D0000020F6E72DE9F04106460C4615460027A4
:1018E0004548007820B1112028700020BDE8F08123
:1018F00010F09EFD0746706920602068FEF700FD2D
:101900008046384610F098FD002028704046EDE7EC
:101910002DE9F04105460E4614460027364800786A
:1019200018B112202070BDE8F08110F081FD07464B
:101930006E61384610F080FD0020207000BFF2E795
:1019400070B504460D46002610F072FD0646D4E937
:101950000310884204D3304610F06EFD5E2070BD47
:101960006068286065602069401C2061304610F086
:1019700063FD0020F3E770B505460C46002610F025
:1019800057FD06462868206068686060A868A06007
:10199000E868E06028692061304610F04DFDD4E928
:1019A0000301401A6061002070BD70B578211348B2
:1019B000FEF7A3FF00240EE004EB44000F4901EB07
:1019C000C005601C00EB400001EBC00068600CA08B
:1019D0006861601C84B2042CEED304EB4400074918
:1019E00001EBC0050020686005A068610846014958
:1019F000086070BD4000001019000010E0170010D2
:101A00003F0000002DE9F04106460D464FF000086A
:101A10003078022804D0012028700020BDE8F08131
:101A200010F006FD80467468E08A78B12169081DCF
:101A300020610F68E08A401EE082A1682069884228
:101A400001D1606820610020287002E01F2028700A
:101A50000027404610F0F0FC3846DFE72DE9F04162
:101A600006460F464FF00008F748007810B10020F6
:101A7000BDE8F08110F0DCFC8046F44804680068A2
:101A800020B1F24800684068F0490860404610F014
:101A9000D3FCFCB110F0CCFC8046ED480568D5B114
:101AA00000680068EA490860404610F0C5FC6E60B6
:101AB00006EB8700A860EE602E61AF820020E8820E
:101AC00002202070002020816560E2A06061204635
:101AD000FFF7CCF908E0DD4800686060DB4804608F
:101AE000404610F0A9FC00242046C1E72DE9F0474C
:101AF0000446894615464FF0000A2078022804D093
:101B0000012028702046BDE8F087CF48007818B142
:101B10000F2028702046F6E710F08AFC8246A07A53
:101B200010B14FF0010801E04FF00008B9F1000FCB
:101B300003D0B9F1010F49D121E0B8F1000F17D15D
:101B4000C4A060616668C24800683060C048066032
:101B500000202070BD480068606000202081BB48E4
:101B60000460504610F068FC00202870002705E053
:101B7000504610F061FC4920287027462DE005E012
:101B80000023042219462046FFF7F6F8A07A002821
:101B9000F6D1B0A060616668AD4800683060AC48BE
:101BA000066000202070A948006860600020208145
:101BB000A6480460504610F03FFCB8F1010F01D177
:101BC000FEF72EFC00202870002706E0504610F09B
:101BD00033FC07202870274600BF00BF384692E735
:101BE00070B50546002610F023FC06466C68606858
:101BF000E060606820610020E082304610F01CFC4C
:101C0000002070BD2DE9F0470746884615464FF085
:101C100000093878022804D0012028700020BDE88F
:101C2000F0878948007818B1022028700020F6E774
:101C30008948007818B10D2028700020EFE710F0D7
:101C4000F7FB81467C68E08A98B12169081D206114
:101C50000E68E08A401EE082A1682069884201D1B6
:101C600060682061484610F0E7FB0020287030468D
:101C7000D5E77A48006890F8340040F004007749CE
:101C8000096881F8340000207449096881F835003A
:101C900072480068C0F830803846FFF7AFF8484611
:101CA00010F0CAFBFEF7BCFB10F0C2FB81466B488C
:101CB000006890F8350020B101280DD002280AD123
:101CC00005E066480068466A002028700DE000269E
:101CD0000E20287009E000BF394660480068FFF711
:101CE00036F800260A20287000BF00BF00205B499C
:101CF000096881F834005949096881F83500574965
:101D00000968C86155490968086254490968486208
:101D1000484610F091FB304681E72DE9F04104463A
:101D20000F4615464FF000082078022804D0012005
:101D300028700020BDE8F08110F07AFB8046A07A80
:101D400020B300267FB1012F0CD107E0022304222B
:101D500000212046FFF710F8701CC6B2A07A0028B8
:101D6000F4D109E000BF0223042200212046FFF73E
:101D700003F8701CC6B200BF00BF404610F05CFB09
:101D8000FEF74EFB0E2028703046D3E7404610F099
:101D900053FB0020287000BFCCE72DE9F041054639
:101DA0000E4600272878022802D00120BDE8F081E5
:101DB00010F03EFB0746A87A60B1002304223146AA
:101DC0002846FEF7D9FF384610F036FBFEF728FB11
:101DD0000020EBE76C68E08AA18A884204DB384681
:101DE00010F02AFB1E20E1E7E168081DE0600E60AC
:101DF000E08A401CE082D4E90210884201D1606888
:101E0000E060384610F018FB0020CFE72DE9F041E4
:101E100005460E4600272878022802D00120BDE89A
:101E2000F08110F005FB0746A87AC8B10023042210
:101E300031462846FEF7A0FF384610F0FDFAFEF7BF
:101E4000EFFA0020EBE7000019000010040000107A
:101E5000440000103F0000001A0000102C00001089
:101E60006C68E08AA18A884204DB384610F0E4FA04
:101E70001E20D4E761682069884201D1A0682061F2
:101E80002069001F206120690660E08A401CE08212
:101E9000384610F0D1FA0020C1E72DE9F04105469F
:101EA0000F4616464FF000082878022802D001207D
:101EB000BDE8F08110F0BCFA8046A87AE8B116F0CF
:101EC000010F0AD005E00023042239462846FEF718
:101ED00053FFA87A0028F6D105E0002304223946F2
:101EE0002846FEF749FF404610F0A6FA16F0040F08
:101EF00001D1FEF795FA0020DAE76C68E08AA18A42
:101F0000884204DB404610F097FA1E20D0E716F016
:101F1000020F0BD061682069884201D1A06820615E
:101F20002069001F20612069076009E0E168081D41
:101F3000E0600F60D4E90210884201D16068E0607F
:101F4000E08A401CE082404610F076FA0020AFE7BD
:101F50002DE9F04705460C464FF0000A2878022884
:101F600002D00120BDE8F08710F062FA8246A87A1C
:101F7000207405F10B0804F10809002705E018F8A2
:101F8000010B09F8010B781CC7B2082FF7D36E6854
:101F9000F08A18B130690068206001E000202060FC
:101FA000F08AA080B08AE080504610F045FA002008
:101FB000D8E72DE9F04160211048FEF79EFC00248F
:101FC0000DE0601C86B204EB44000C4901EBC00537
:101FD00006EB460001EBC0072F60601C84B2032CA7
:101FE000EFD304EB4400054901EBC0050020286055
:101FF000084603490860BDE8F08100005818001049
:102000004400001070B5044600262078032801D053
:10201000002070BD10F00CFA0646258915B1208904
:10202000401E2081304610F007FA2846F1E770B5CF
:1020300005460026D748007808B1002070BD10F092
:10204000F7F90646D4480468006820B1D248006811
:102050004068D1490860304610F0EEF94CB10320D9
:102060002070258100206060CCA060612046FEF7D2
:10207000FDFE2046E2E72DE9F04704468846154676
:102080004FF000092078032804D001202870204652
:10209000BDE8F087BF48007818B10F2028702046AF
:1020A000F6E710F0C5F98146A07A08B1012700E0F3
:1020B0000027B8F1000F03D0B8F1010F3AD119E0B1
:1020C0008FB9B6A0606100202070B34800686060DE
:1020D00000202081B0480460484610F0ADF900208F
:1020E0002870002605E0484610F0A6F9492028701F
:1020F000264626E005E00023012219462046FEF789
:102100003BFEA07A0028F6D1A4A0606100202070D8
:10211000A14800686060002020819F480460484614
:1021200010F08AF9012F01D1FEF77AF9002028700A
:10213000002606E0484610F07FF907202870264662
:1021400000BF00BF3046A3E72DE9F04105460E462B
:10215000144600272878032803D001202070BDE80A
:10216000F0818C48007810B102202070F7E78C488D
:10217000007810B10D202070F1E710F059F90746F2
:10218000288940B12889401E2881384610F054F92A
:1021900000202070E3E78348006890F8340040F0A6
:1021A00001008049096881F8340000207D490968F0
:1021B00081F835007B48006806632846FEF71EFE5E
:1021C000384610F039F9FEF72BF910F031F90746CF
:1021D0007448006890F8350020B1012809D0022821
:1021E00006D102E0002020700BE00E20207008E0F5
:1021F00000BF29466B480068FEF7A9FD0A20207041
:1022000000BF00BF00206749096881F834006549B4
:10221000096881F8350063490968C861614909683E
:102220000862384610F008F900BF98E72DE9F04140
:1022300004460F4615464FF000082078032804D0C6
:10224000012028700020BDE8F08110F0F1F88046F0
:10225000A07A20B300267FB1012F0CD107E0022322
:10226000012200212046FEF787FD701CC6B2A07A2D
:102270000028F4D109E000BF0223012200212046FA
:10228000FEF77AFD701CC6B200BF00BF404610F0DA
:10229000D3F8FEF7C5F80E2028703046D3E7404645
:1022A00010F0CAF80020287000BFCCE770B50446D3
:1022B00000252078032801D0012070BD10F0B8F867
:1022C0000546A07A60B10023012219462046FEF798
:1022D00053FD284610F0B0F8FEF7A2F80020ECE716
:1022E00020894FF6FF71884207D22089401C208147
:1022F000284610F0A1F80020DFE7284610F09CF8EF
:102300003320DAE72DE9F04704460D464FF0000987
:102310002078032802D00120BDE8F08710F088F86B
:102320008146A07AA87204F10B0705F10208002685
:1023300005E017F8010B08F8010B701CC6B2082E57
:10234000F7D320892880484610F076F80020E3E78C
:102350002DE9F04104460E46154600272078032853
:1023600003D001202870BDE8F08110F061F8074625
:1023700000202870208908B1268105E0A07A08B9DC
:10238000268101E049202870384610F055F800BF3A
:10239000E9E7000019000010040000103F000000F1
:1023A0001A0000102C0000102DE9F34F85B088466C
:1023B0000020019010F03CF80190FE4850F82800F1
:1023C00030B1019810F038F8282007B0BDE8F08F40
:1023D0000598FF2804D1F848006890F83600059069
:1023E000F449059851F8205025B9019810F024F8C7
:1023F0002920EAE7012D04D1019810F01DF84320AF
:10240000E3E74FEAE80708F0070003900120B8402F
:1024100000F0FF0901210398814001F0FF0A00212B
:10242000E44A059842F82010104640F8285095F8E4
:10243000386095F83A00029095F839B0DF48805D31
:1024400010EA0B0F1AD0DD48805D20EA0B00DB4953
:1024500088550846805D28B9D94800780299884394
:10246000D7490870D648007840EA0900D449087076
:10247000D248C05D40EA0A00D049C855EC69D4B1E1
:1024800004F10B00805D20EA0B0004F10B0188557C
:102490000846805D18B9A07A02998843A072A07A94
:1024A00040EA0900A07204F10B00C05D40EA0A0096
:1024B00004F10B01C855286A30B3286A04900498C7
:1024C00004681FE004F10B00805D20EA0B0004F1BA
:1024D0000B0188550846805D18B9A07A0299884397
:1024E000A072A07A40EA0900A07204F10B00C05D5E
:1024F00040EA0A0004F10B01C8550498001D04903D
:1025000004980468002CDDD185F8368085F8387091
:10251000039885F8370085F83A9085F839A0019836
:102520000FF08AFFA7480078012801D1FDF778FF56
:1025300000204AE72DE9FE4F06460F4690461C460E
:102540004FF000090FF074FF81469F48007828B1D2
:1025500048460FF071FF3C20BDE8FE8F954850F8CB
:10256000240060BB0120934941F8240048460FF045
:1025700063FF002342463946304601F019F882468F
:1025800000200090019003460246514602902046EA
:10259000FEF784FC054635B98A48007801280CD13D
:1025A000FDF73EFF09E00FF043FF8146002081491F
:1025B00041F8240048460FF03FFF2846CCE7484644
:1025C0000FF03AFF2820C7E712F0010F08D012F0F1
:1025D000020F05D002E0491E002308C00029FAD1ED
:1025E00070472DE9F04F85B081468A4693461C46D8
:1025F000DDE90F78129D002003900FF019FF039082
:102600007148007830B103980FF016FF3C2005B0F8
:10261000BDE8F08F674850F8240088BB0120654969
:1026200041F8240003980FF007FF2A464146384638
:10263000FFF7CAFF2B465A465146484600F0B8FFFE
:1026400004901198CDE9008002953A4620460E9BF1
:102650000499FEF723FC064636B95A48007801284B
:102660000CD1FDF7DDFE09E00FF0E2FE0390002043
:10267000504941F8240003980FF0DEFE3046C6E7CB
:10268000FFE703980FF0D8FE2820C0E72DE9F041BE
:10269000054600274C48007810B14020BDE8F08185
:1026A0003F2D01D13E20F9E70FF0C2FE0746FF2D76
:1026B00003D14148006890F836503E4850F8254014
:1026C00024B938460FF0B8FE4320E7E7012C04D1C7
:1026D00038460FF0B1FE3D20E0E714F8380F3749D7
:1026E000085C617888432178344A505414F83809DA
:1026F0001146085C30B994F83A10314800788843A4
:102700002F490870E06918B12046E169FEF71FFB08
:10271000206A18B12046216AFDF757FEA66A16B155
:102720003046FEF71AFD0020206384F8340084F858
:10273000350026480078FF2804D224480078401C41
:102740002249087038460FF077FEFEF7FFFA0FF0C7
:102750006FFE07461D48007820B11C480078401ED7
:102760001A490870204600F00FFF19480078401EF3
:102770001749087000200F4941F82500A06930B9B9
:1027800000206169886113496069086005E0D4E947
:1027900005014861D4E9051088610F48006860614F
:1027A0000D4804600DA0206538460FF045FE054831
:1027B000007815E0500F00102C0000101E000010D3
:1027C0001D00001026000010190000101A00001053
:1027D0002700001038000010300000103F000000FB
:1027E000012801D1FDF71CFE002057E72DE9F0413B
:1027F000044600273F2C02D13E20BDE8F081FF2C8B
:102800000BD10FF015FE0746ED48006890F83B60CD
:1028100038460FF011FE3046EFE70FF009FE07468D
:10282000E84850F8245025B938460FF005FE4320FB
:10283000E3E7012D04D138460FF0FEFD3D20DCE733
:102840003F2085F83B0038460FF0F6FD0020D4E726
:102850002DE9F04706460F4614464FF00008DA48C7
:10286000007820B1112020700020BDE8F0870FF023
:10287000DFFD8046FF2E03D1D148006890F8366016
:10288000D04850F8265035B940460FF0D5FD4320CA
:1028900020700020E9E7012D06D140460FF0CCFD65
:1028A000432020700020E0E7286D38603868FDF78D
:1028B00027FD814640460FF0BFFD002020704846AE
:1028C000D3E72DE9F04106460F4614464FF00008C5
:1028D000BD48007818B112202070BDE8F0810FF0DB
:1028E000A7FD8046FF2E03D1B548006890F83660FA
:1028F000B44850F826502DB940460FF09DFD4320B6
:102900002070EAE7012D05D140460FF095FD4320E8
:102910002070E2E72F6540460FF08EFD002020700A
:1029200000BFDAE770B5054600260FF081FD0646C8
:10293000A44850F8254024B930460FF07DFD4620CC
:1029400070BD012C04D130460FF076FD4320F7E72F
:1029500094F8340010F0080F2FD014F8340F00F062
:10296000F700207014F8340910BB206BE0B904F1B3
:102970003804A0789549097840EA01009349087025
:1029800020789349085C617840EA010014F838190E
:102990008F4A505430460FF04FFD8E480078012882
:1029A00009D1FDF73DFD06E030460FF045FD02E0A0
:1029B00030460FF041FD0020C2E730460FF03CFDED
:1029C0004420BDE72DE9F04707460D464FF0000AC9
:1029D0000020286068600FF02BFD8246FF2F03D196
:1029E0007748006890F83670764850F827402CB940
:1029F00050460FF021FD4320BDE8F087012C04D1A3
:102A000050460FF019FD4320F6E7207C10F0010F2F
:102A100004D150460FF010FD4520EDE70026D4F814
:102A20000C90D4F8088050460FF006FD00E0761CAC
:102A300058F8041B0029FAD0B0002860A9EB060062
:102A4000800068600020D7E72DE9F04105464FF08F
:102A500000080FF0EDFC8046FF2D05D158480068B6
:102A600090F83650012608E05548006890F8360086
:102A7000A84201D1012600E00026524850F8254026
:102A80002CB940460FF0D8FC4820BDE8F081012C5D
:102A900004D140460FF0D0FC4320F6E794F838709C
:102AA0004B48C05D94F8391088434949C8550846D9
:102AB000C05D30B994F83A104448007888434349DF
:102AC000087094F8340040F0080084F83400404660
:102AD0000FF0B2FC012E01D1FDF7A2FC0020D4E7DB
:102AE0002DE9F04105460E4600270FF0A1FC0746F0
:102AF000FF2D03D13248006890F83650314850F825
:102B000025402CB938460FF097FC2920BDE8F0810C
:102B1000012C04D138460FF08FFC4320F6E75822F1
:102B200021463046FEF7B0F938460FF085FC00200C
:102B3000ECE72DE9F04704460E4617464FF0000932
:102B40000FF076FC8146FF2C02D11D48056802E09B
:102B50001C4850F8245005F1540050F8268048468F
:102B60000FF06AFC002038704046BDE8F0872DE980
:102B7000F04704460E46174698464FF000090FF0FE
:102B800057FC8146FF2C02D10D48056802E00D4834
:102B900050F8245005F1540040F8267048460FF0D4
:102BA0004BFC002088F80000BDE8F08710B5044811
:102BB000006800F0F3FCFF20FFF768FD10BD000087
:102BC0002C000010500F0010190000101D00001004
:102BD0001E0000102600001070B50546002665484E
:102BE000007800B170BD6448007800B1FAE71DB309
:102BF0000FF01EFC06466148006890F838406048B7
:102C0000005D5E49096891F8391088435C490855B0
:102C10000846005D40B95948006890F83A10594894
:102C20000078884357490870544800680563304667
:102C30000FF002FCFDF7F4FB00BFD3E72DE9F041F4
:102C400004460D4616461F464A48007810B15520E6
:102C5000BDE8F0814848007808B13220F8E7781DD7
:102C6000642148434FF47A71B0FBF1F14FF4616095
:102C70006043C5EB051200EB8200304400EBC0025C
:102C800002EB001001EB80084046FFF7A5FF002093
:102C9000DEE770B5054600263F2D01D32A2070BD22
:102CA0000FF0C6FB0646384850F8254024B9304698
:102CB0000FF0C2FB4320F2E7012C04D130460FF0A5
:102CC000BBFB4320EBE7206B20B930460FF0B4FB91
:102CD0005020E4E70020206394F8340010F0370F10
:102CE00009D014F8340F20F03700207001206070F4
:102CF000A4F1340402E0002084F8350094F8340094
:102D000010F0080F18D104F13804A0781D49097893
:102D100040EA01001B49087020781949085C617875
:102D200040EA010014F83819154A505430460FF0A3
:102D300083FBFDF775FB02E030460FF07DFB0020C2
:102D4000ADE770B500250FF073FB05460F4804682A
:102D500028460FF071FB204670BD70B50446002573
:102D60000FF066FB05460948046028460FF064FB37
:102D700070BD0000190000101A0000102C00001097
:102D80001E0000101D000010500F00104800001021
:102D9000FC48006808B900207047FA480168F94A01
:102DA000C86810600020C8600861F7480088401CAF
:102DB000F54A1080F5480088401EF44A1080084605
:102DC000EAE72DE9F05F06460F4690469946DDE9B1
:102DD0000AAB0C9DEE48007820B18B2028700020B3
:102DE000BDE8F09FFDF77EFEFFF7D2FF04462CB949
:102DF000FDF791FE862028700020F1E7012084F87D
:102E00002500A661E76184F82480C4F80490C4F822
:102E100008A0C4F820B0FDF77EFE002028702046F0
:102E2000DEE7002180F8251080F82410C16141619F
:102E300041608160D7A1016200210161D149096827
:102E4000C160D0490860D0490988491ECE4A118026
:102E5000CE490988491CCD4A1180704730B5057D9F
:102E600005F00704CC4D05EBC4031D68854205D170
:102E7000C168196039B100250D6104E00169C268BB
:102E8000CA6002B11161012580F825500025C56096
:102E900005619D886D1E9D8030BD70B505460C4650
:102EA0002878642803D089202070002070BDB8489D
:102EB000007818B18B2020700020F7E7FDF712FE94
:102EC00095F82500D8B101280FD002280ED003288C
:102ED0001BD12846FFF7C2FF2846FFF7A2FFFDF7E8
:102EE0001AFE002020700120E0E700BF2846FFF70F
:102EF00098FFFDF710FE002020700120D6E7FDF7B7
:102F00000AFE872020700020D0E7FDF704FE8D2008
:102F100020700020CAE72DE9F04105460E46144610
:102F20002878642804D0892020700020BDE8F08132
:102F30009748007818B1112020700020F6E7FDF7BF
:102F4000D1FD95F8250098B1012804D0022803D0BE
:102F5000032813D100BF00BF286A30603068FDF736
:102F6000CFF90746FDF7D7FD002020703846DDE792
:102F7000FDF7D1FD872020700020D7E7FDF7CBFDBE
:102F80008D2020700020D1E770B504460D462078D2
:102F9000642803D089202870002070BD7C48007808
:102FA00018B18B2028700020F7E7FDF79BFD94F8FF
:102FB000250070B301280DD0022825D003282FD179
:102FC000764960690968461AFDF7A5FD002028705A
:102FD0003046E2E794F8240001280CD0022809D1F9
:102FE000A06908B9E66900E0A669FDF794FD002034
:102FF000287006E000BFA669FDF78DFD002028704F
:1030000000BF00BF3046C8E7FDF785FD00202870EF
:10301000C3E7FFE7FDF77FFD872028700020BCE7AE
:10302000FDF779FD8D2028700020B6E770B50546C4
:103030000C462878642803D089202070002070BDB9
:103040005348007818B18B2020700020F7E7FDF777
:1030500049FD95F8256036B1012E05D0022E04D029
:10306000032E06D102E000BF00BF00BF0020207089
:1030700002E08D20207000BF00BFFDF74CFD304600
:10308000DDE770B50B46032580F82550012B05D1EF
:10309000424EC5693668354445610CE085692DB9F5
:1030A0003E4EC56936683544456104E03B4E85694E
:1030B000366835444561057D05F00704364D05EB5E
:1030C000C4010D682DB908600025C56001258D80FB
:1030D00006E00A680860C26010618D886D1C8D80F2
:1030E0000025056170BD70B505460C46287864283A
:1030F00003D089202070002070BD2548007818B1C9
:103100008B2020700020F7E7FDF7ECFC95F82500F8
:10311000E8B1012810D002280FD003281DD128467D
:10312000FFF79CFE00212846FFF7ABFFFDF7F3FCFD
:10313000002020700120DFE700BF00212846FFF7B4
:10314000A0FFFDF7E8FC002020700120D4E7FDF788
:10315000E2FC872020700020CEE7FDF7DCFC8D200C
:1031600020700020C8E72DE9F04105460F46904643
:103170001C462878642813D0892020700020BDE8E0
:10318000F08100005C0000104E0000104C000010A8
:10319000190000103F000000381D00105000001002
:1031A0007D48007818B18B2020700020E7E7FDF7FC
:1031B00099FC95F82500002832D001282AD0022851
:1031C00027D0032832D12846FFF748FE0020207080
:1031D000B7B1032F02D0042F13D108E06E681EB1DF
:1031E0002846A968B04701E08F2020700CE06E6887
:1031F0001EB141462846B04701E08F20207003E011
:1032000002E08420207000BF00BFFDF784FC012095
:10321000B5E700BFFDF77FFC8E2020700120AEE7F0
:10322000FDF779FC872020700020A8E7FDF773FCEC
:103230008D2020700020A2E710B558480068FFF7E5
:1032400035F80446204610BD08B500BF00BF6A46E9
:10325000002152480068FEF777FFFDF743FC504815
:103260000068401C4E4908600846007800F00708D6
:103270004C4800EBC8073C681AE0E66848496069BA
:103280000968884213D12046FFF7E8FD94F824002E
:10329000022804D101212046FFF7F3FE02E00220BC
:1032A00084F82500656815B12046A168A847344612
:1032B000002CE2D1FDF72FFCC9E700B587B0032051
:1032C00000218022384BCDE90132CDE903104FF6C1
:1032D000FD703D23354A00903548FFF782F906AA74
:1032E00034A13D20FFF7EDFA07B000BDF8B54FF46B
:1032F00020713448FDF701FB40212A48FDF7FDFA13
:10330000002515E0681C86B205EB85002D4901EB10
:10331000C00406EB860001EBC0076420207000208B
:1033200084F82500E760AFF294102062681C85B233
:103330000F2DE7D305EB8500224901EBC004642083
:103340002070002084F82500E060AFF2B810206201
:103350000020134908601C49088010201B49088080
:1033600018481B4908600120FEF761FE19490860F2
:103370000020FEF75CFE094908606A4616A1154860
:103380000068FCF7F8FF6A4618A104480068FCF7DB
:10339000F2FFFFF792FFF8BD19000010580000106F
:1033A00050000010381D0010381B0010341D001094
:1033B0004932000075432F4F532D494920546D72F7
:1033C00000000000B81800104E0000104C00001063
:1033D0005C0000105400001075432F4F532D4949D5
:1033E00020546D724C6F636B0000000075432F4FCB
:1033F000532D494920546D725369676E616C00000A
:103400001D481E481E481F481F4820482048214884
:103410002148224822482348234824482448254854
:103420002548264826482748274828482848294824
:1034300029482A482A482B482B482C482C482D48F4
:103440002D482E482E482F482F48304830483148C4
:103450003148324832483348334834483448354894
:103460003548364836483748374838483848394864
:10347000394800BF70470000782F01007C2F010001
:10348000822F0100842F0100802F0100862F010070
:10349000882F01008A2F01008C2F01008E2F010040
:1034A000902F0100922F0100942F0100962F010010
:1034B000982F01009A2F01009C2F01009E2F0100E0
:1034C000A02F0100A22F0100A42F0100A62F0100B0
:1034D000A82F0100AA2F0100AC2F0100AE2F010080
:1034E000B02F0100B22F0100B42F0100B62F010050
:1034F000B82F0100BA2F0100BC2F0100BE2F010020
:10350000C02F0100C22F0100C42F0100C62F0100EF
:10351000C82F0100CA2F0100CC2F0100CE2F0100BF
:10352000D02F0100D22F0100B8180010381D001054
:10353000D62F0100D82F0100DA2F0100DC2F010067
:10354000DE2F0100E02F0100E22F0100E42F010037
:10355000E62F0100D42F0100E82F01005C488021F4
:1035600002E0491E002204C00029FAD1594A5A4BF0
:103570001A600022594B1A807047704710B50446F4
:103580002046FCF766FE10BD10B504462046FCF749
:1035900061FE10BD10B5FCF75EFE10BD10B504460F
:1035A0002046FCF75DFE10BD10B5FCF755FE10BDC2
:1035B00070B5044610464FF080750560051F28461B
:1035C0002C60474E051F28462E604FF01236051F0F
:1035D00028462E604FF00336051F28462E604FF018
:1035E0000236051F28462E607610051F28462E60DD
:1035F000051F284629604FF01136051F28462E600A
:103600004FF01036051F28462E604FF00936051F73
:1036100028462E604FF00836051F28462E604FF0D2
:103620000736051F28462E604FF00636051F284630
:103630002E604FF00536051F28462E604FF00436E9
:10364000051F28462E6070BD10B5FCF706FE10BDA4
:1036500010B504462046FCF701FE10BD10B5FCF77E
:10366000FEFD1E480088401C1C4908800846008852
:103670000A2803D300200880FFF7DEFD10BD10B537
:1036800006F0CFFF0EF0D4FE044616480078401C2A
:103690001449087020460EF0CFFEFDF7E7FAFDF75B
:1036A000E9F910BD411E4FF0E0225161FF210E4AA1
:1036B00011704FF0E021096941F005014FF0E0225F
:1036C00011611146096941F0020111617047000062
:1036D000781D0010741F00106000001064000010BE
:1036E000AD2B00001900001023ED00E010B507F02D
:1036F000B1F907F000F806F072FE10BD1CB568467F
:1037000008F08AF828B19DF8010010B19DF8010079
:103710001CBD0020FCE72DE9F04F89B0FFF7EEFF5C
:10372000002838D003F06CFB34490968401A64283B
:1037300031D933A000F069FB0DF006FA04460DF014
:1037400088F905460DF00FF906460CF0FCFF074618
:1037500005F067FD804605F061FD814605F06DFDD1
:10376000824605F067FD834605F0B4FD089005F03C
:10377000A9FD5B46CDE900A9CDE90287CDE9046545
:10378000CDE9064001462448089A00F060FB03F0AA
:1037900037FB1A49086009B0BDE8F08F00F0DAF88D
:1037A000FCF780FD06F08AFF09F0F4FA25E00CF042
:1037B000A6FE0AF0B1FB09F08BFF0DF06BF80DF0DF
:1037C000C6F904F024FC03F01BFB04460CF015FCC6
:1037D000201AB0F52F7F0CD903F012FB04460CF031
:1037E0000CFC201AB0F5487F01D208F0B1FD07F0BB
:1037F00031F906F080FFFFF78EFFD8E76800001070
:103800000D0AB8DFB6C8312C25642CB8DFB6C83233
:103810002C25642C00000000EC2F01009748006864
:10382000C0F30160032864D19548006810F00300DC
:1038300006D0012823D002283FD0032858D100E029
:1038400000BF8E480068C0F30E0000F101004FEA8F
:1038500040008C4900FB01F08B49D1F88810C1F37E
:10386000074101F10101B0FBF1F188480068C0B2E5
:1038700000F10100B1FBF0F08549086038E07F48B5
:103880000068C0F30E0000F101004FEA40008149DA
:1038900000FB01F07C49D1F88810C1F3074101F128
:1038A0000101B0FBF1F179480068C0B200F10100FC
:1038B000B1FBF0F0764908601AE070480068C0F388
:1038C0000E0000F101004FEA00416F48D0F8880077
:1038D000C0F3074000F10100B1FBF0F16B48006854
:1038E000C0B200F10100B1FBF0F06949086000BF0F
:1038F0002FE06348006810F0030006D0012810D0C4
:10390000022819D0032823D100E000BF5F480068D7
:10391000C0B200F101005B49B1FBF0F05C49086006
:1039200016E05A480068C0B200F101005949B1FBE5
:10393000F0F0574908600BE054480068C0B200F14D
:1039400001004FF40041B1FBF0F05149086000BFA5
:1039500000BF70474FF04070011420224E4B1A6098
:10396000494AD2F8A02112F0200F05D000BF4A4AE0
:10397000126812F0400FFAD00322444B1A604FF045
:103980000002414BC3F8A821444B1A604FF00102DA
:103990003B4B1A60424A434B1A604FF0AA02424B1B
:1039A0001A604FF055021A604FF001023F4B1A6047
:1039B0004FF0AA023C4B1A604FF05502324BC3F84D
:1039C0008C2000BF2D4A126812F0806FFAD00322BB
:1039D000364B1A604FF0AA022B4BC3F88C204FF0E5
:1039E0005502314B1A6000BF244A126802F040723F
:1039F000B2F1407FF8D123222D4B1A604FF0AA027A
:103A0000214BC3F8AC204FF055022A4B1A604FF0FF
:103A10000102294B1A604FF0AA02264B1A604FF0A0
:103A20005502194BC3F8AC2000BF244A126812F4A7
:103A3000806FFAD00322204B1A604FF0AA02124B7B
:103A4000C3F8AC204FF055021A4B1A6000BF1B4A56
:103A5000126802F44072B2F5407FF8D1184A194B4F
:103A60001A604FF00002084BC3F8C82143F23A0233
:103A70001A604FF00002144B1A60704788C00F4064
:103A80000CC10F4000093D0000C00F4004C10F40B1
:103A90006C000010001BB700A0C10F40ACC10F406C
:103AA0006300050084C00F408CC00F4080C00F40F1
:103AB000A4C00F40ACC00F40A0C00F40A8C00F4032
:103AC000DE872804C4C00F4008ED00E013B50446AB
:103AD00001231A4601A9204601F006FF1CBD38B596
:103AE00004460020009001231A466946204601F052
:103AF00046FF9DF8000038BD70B506460D462C46C1
:103B000004E014F8011B3046FFF7E0FF207800289E
:103B1000F7D170BD70B504460D4629462046FFF723
:103B2000EBFFFEA12046FFF7E7FF70BD2DE9F04156
:103B300005460C460A2094FBF0F100FB1140C6B28A
:103B40000A2094FBF0F00A2190FBF1F201FB120035
:103B5000C7B2642094FBF0F090FBF1F201FB12007D
:103B600000F0FF0808F13000C1B22846FFF7AEFFB1
:103B700007F13000C1B22846FFF7A8FF06F1300078
:103B8000C1B22846FFF7A2FFBDE8F0812DE9F0475A
:103B900005460C460A2094FBF0F100FB1140C6B22A
:103BA0000A2094FBF0F00A2190FBF1F201FB1200D5
:103BB000C7B2642094FBF0F090FBF1F201FB12001D
:103BC00000F0FF084FF47A7094FBF0F090FBF1F2F4
:103BD00001FB120000F0FF0942F2107094FBF0F0BC
:103BE00090FBF1F201FB120000F0FF0A0AF1300035
:103BF000C1B22846FFF76AFF09F13000C1B228467A
:103C0000FFF764FF08F13000C1B22846FFF75EFFFE
:103C100007F13000C1B22846FFF758FF06F1300027
:103C2000C1B22846FFF752FFBDE8F0872DE9F34FF8
:103C300083B00C460A20B4FBF0F100FB1145B4FB45
:103C4000F0F00A21B0FBF1F201FB12066420B4FB94
:103C5000F0F0B0FBF1F201FB12074FF47A70B4FB05
:103C6000F0F0B0FBF1F201FB120842F21070B4FB6D
:103C7000F0F0B0FBF1F201FB1209A948B4FBF0F03F
:103C8000B0FBF1F201FB120AA648B4FBF0F0B0FB66
:103C9000F1F201FB120BA448B4FBF0F0B0FBF1F21F
:103CA00001FB12000290A148B4FBF0F0B0FBF1F26E
:103CB00001FB120001909E48B4FBF0F0B0FBF1F262
:103CC00001FB1200009000983030C1B20398FFF75A
:103CD000FDFE01983030C1B20398FFF7F7FE02985D
:103CE0003030C1B20398FFF7F1FE0BF13000C1B2E2
:103CF0000398FFF7EBFE0AF13000C1B20398FFF71B
:103D0000E5FE09F13000C1B20398FFF7DFFE08F1CC
:103D10003000C1B20398FFF7D9FE07F13000C1B2FD
:103D20000398FFF7D3FE06F13000C1B20398FFF706
:103D3000CDFE05F13000C1B20398FFF7C7FE05B014
:103D4000BDE8F08F2DE9F04107460D4679A13846D0
:103D5000FFF7D2FE012600BFB00045FA00F000F0E8
:103D60000F04092C02DD04F1370001E004F13000FA
:103D7000C1B23846FFF7AAFE3000A6F10101CEB26B
:103D8000EAD1BDE8F0812DE9F04107460D4669A171
:103D90003846FFF7B1FE032600BFB00045FA00F039
:103DA00000F00F04092C02DD04F1370001E004F1FA
:103DB0003000C1B23846FFF789FE3000A6F101019C
:103DC000CEB2EAD1BDE8F0812DE9F04107460D46BB
:103DD00058A13846FFF790FE072600BFB00025FA2D
:103DE00000F000F00F04092C02DD04F1370001E0BF
:103DF00004F13000C1B23846FFF768FE3000A6F18A
:103E00000101CEB2EAD1BDE8F0810FB410B5C2B065
:103E100044980CF0ABFF44980CF0A8FFC82803D9D5
:103E200042B010BC5DF814FB45A8419001A8419A2E
:103E300044990CF05DFF0020419001A80CF096FF22
:103E40000446214601A804F0E5FA00BFE8E70FB4F4
:103E500010B5C2B044980CF089FF44980CF086FF6E
:103E6000C82803D942B010BC5DF814FB45A84190A6
:103E700001A8419A44990CF03BFF0020419001A811
:103E80000CF074FF0446214601A803F073FB00BF49
:103E9000E8E71FB501208DF8020000208DF804002E
:103EA0008DF8030002208DF8010000208DF800003D
:103EB000684600F013FB03208DF80100684600F00F
:103EC0000DFB02A801F0CEFC4FF4E130029002A9F4
:103ED000194801F047FB0121174801F034FCAFF20B
:103EE000E73016490860AFF2D33015490860AFF2E9
:103EF000234014490860AFF2B31013490860AFF2D1
:103F0000791012490860AFF23F1011490860AFF212
:103F1000E33010490860AFF28B301DE00A0D00005D
:103F2000A086010040420F008096980000E1F50550
:103F300000CA9A3B3078000000C0004070000010BA
:103F40007400001078000010880000108C00001031
:103F5000900000107C00001005490860AFF233307B
:103F600004490860AFF28940034908601FBD0000A2
:103F70008000001084000010940000102DE9F04132
:103F800004460D46C248844200D103E04821C1A046
:103F9000FCF786F91DB1C648854200D803E04921E7
:103FA000BCA0FCF77DF90121080300F0E5F9002031
:103FB00020604FF40018182000F0C1F9064605EB08
:103FC000851707EB46007900B0FBF1F0471E48EA81
:103FD0000728C4F80080BDE8F08110B50446AC485D
:103FE000844200D103E06921AAA0FCF759F92068B6
:103FF00010F0E06F03D0206820F0E06020602068BF
:1040000020F0FF002060206820F4001020600021D4
:104010004FF4805000F0B0F910BD014601B100BF6F
:1040200000BF9B48103050F82120C2F30B1070479E
:1040300070B505460C469648854200D103E09521AF
:1040400094A0FCF72DF96CB1012C0BD0022C09D0F7
:10405000032C07D0042C05D0052C03D0062C01D04E
:10406000072C00D103E096218AA0FCF719F92868F3
:1040700020F0E0602860286840EA0460286070BD95
:1040800070B504460D468248844200D103E0A72162
:1040900080A0FCF705F9206820F4803020601DB175
:1040A000206840F48030206070BD70B504460D4635
:1040B0007748844200D103E0B92176A0FCF7F0F8FC
:1040C000206820F4001020601DB1206840F400102A
:1040D000206070BD70B504460D466D48844200D125
:1040E00003E0CB216BA0FCF7DBF80DB1012D00D173
:1040F00003E0CC2167A0FCF7D3F8206820F0006033
:1041000020601DB1206840F00060206070BD70B577
:1041100005460C4616465E48854200D103E0E42180
:104120005CA0FCF7BDF87CB1012C0DD0022C0BD0AB
:10413000032C09D0042C07D0052C05D0062C03D065
:10414000072C01D0082C00D103E0E52151A0FCF799
:10415000A7F8E8680121A1408843E86026B1E96832
:104160000120A0400143E96070BD70B504460D46D2
:1041700016464748844200D103E0F72145A0FCF7EA
:104180008FF805B100BF00BF012E05D120680121C5
:10419000A940084320600CE0206810F0E06F03D0D5
:1041A000206820F0E060206020680121A940884359
:1041B000206070BD70B504460D463548844200D17C
:1041C00004E040F20D1133A0FCF76AF805B100BF1E
:1041D00000BF04F1100050F82560C6F30B1070BD4D
:1041E0002DE9F04107460E4614462948874200D182
:1041F00004E040F2211127A0FCF752F806B100BFFD
:1042000000BF0CB1012C00D104E040F2231121A029
:10421000FCF746F807F1100050F8265014B105F0ED
:10422000004501E005F0804515B10120BDE8F081B1
:104230000020FBE710B504461548844200D104E095
:104240004FF49D7113A0FCF72BF8606810BD70B59A
:1042500006460C460E48864200D104E040F24B115F
:104260000CA0FCF71DF80CB1012C00D104E04FF4B8
:10427000A67108A0FCF714F8756814B105F00045A4
:1042800001E005F080450DB1012070BD0020FCE784
:10429000004003404353425C736F757263655C6C0E
:1042A0007063313778785F6164632E6300000000CB
:1042B000400D030010B50A46202801D2034601E054
:1042C000A0F120031946202814D2464B1B684FF05A
:1042D000030404FA01F423EA0403434CC4F8A831AC
:1042E000404B1B6802FA01F443EA04033E4CC4F855
:1042F000A83113E03D4B1B684FF0030404FA01F4AE
:1043000023EA0403384CC4F8AC31384B1B6802FA7A
:1043100001F443EA0403344CC4F8AC3110BD014647
:10432000202903D20A462F4B186803E0A1F120028E
:104330002E4B186820FA02F303F00300704770B5A3
:1043400006462B4804683046FFF7E9FF054635B1BD
:10435000012D06D0022D06D0032D08D105E004253D
:1043600005E0012503E0022501E0082500BF00BFAC
:10437000B4FBF5F4204670BD01290AD11D4A12682C
:104380001D4B00EA030342EA0302174BC3F8C420A3
:104390000AE049B9174A1268174B23EA000302EAF8
:1043A0000302114BC3F8C420704700201349086072
:1043B00030BF704704201249086000200F49086090
:1043C00030BF704704200E49086001200B49086087
:1043D00030BF704704200A4908600320074908607D
:1043E00030BF7047A8C10F4000C00F40ACC10F40A4
:1043F0006C000010C4C00F40DEF7EFEFC0C00F40EC
:1044000010ED00E0F0B504460B4615461946600075
:104410003B4A102901D31039401C52F820604FEA62
:10442000410C032707FA0CF7BE4342F8206052F80C
:1044300020604F0005FA07F73E4342F82060F0BDC8
:10444000F0B504460B461546194660002C4A40322A
:10445000102901D31039401C52F820604FEA410C5A
:10446000032707FA0CF7BE4342F8206052F8206099
:104470004F0005FA07F73E4342F82060F0BD30B523
:104480000B461F496831012A07D151F82040012508
:104490009D402C4341F8204006E051F82040012582
:1044A0009D40AC4341F8204030BD012806D114495D
:1044B000896A41F00801124A916206E028B9104960
:1044C000896A21F008010E4A91627047012800D1E3
:1044D000052201B90A220A4BDA67704710B5044673
:1044E000A27861782078FFF78DFFE27861782078F4
:1044F000FFF7A6FF227961782078FFF7C0FF10BD93
:1045000000C002402DE9F04704468846F74884423F
:1045100002D0F748844200D103E04921F5A0FBF71F
:10452000BFFEF248844204D12A20FFF708FF074665
:1045300009E0EF48844204D11420FFF700FF07464A
:1045400001E0BDE8F08700254FF0FF3902260AE0C0
:10455000681C7043B7FBF0F9C14504D96D1CFF2DF1
:1045600001D90025B61CC145F2D82068C0B2206030
:1045700020684FF6FF7101EA052108432060F0B280
:10458000206100BFDDE770B504460D46D748844280
:1045900002D0D748844200D103E08721D5A0FBF7A1
:1045A0007FFED248844204D101214805FFF7E4FE92
:1045B00008E0CF48844204D101210015FFF7DCFE5A
:1045C00000E070BDA88829890843298A0843298802
:1045D000084386B22660287B00F00F0666602046FE
:1045E0006969FFF78FFF00BFEBE710B50446BF48CE
:1045F000844202D0BE48844200D103E0AE21BDA077
:10460000FBF74EFEB948844205D100214FF400105B
:10461000FFF7B2FE06E0B648844203D10021001540
:10462000FFF7AAFE10BD10B50446B048844202D080
:10463000AF48844200D103E0C621AEA0FBF730FEB4
:10464000206800F00F0010BD802141604021816092
:10465000AF494161072101600021C16001617047DC
:1046600070B504460D46A148844202D0A048844259
:1046700000D103E0EC219FA0FBF712FE0DB1012D4C
:1046800000D103E0ED219BA0FBF70AFE012D04D130
:10469000606840F00200606003E0606800F00D00B8
:1046A000606070BD70B504460D469048844202D0EB
:1046B0008F48844200D104E040F205118DA0FBF741
:1046C000EFFD0DB1012D00D104E04FF4837189A0FD
:1046D000FBF7E6FD012D04D1606840F00100606049
:1046E00003E0606800F00E00606070BD70B50446C5
:1046F0000D467E48844202D07D48844200D104E0C9
:1047000040F221117BA0FBF7CBFD0DB1012D00D1B3
:1047100004E04FF4917177A0FBF7C2FD012D04D1A5
:10472000606800F00700606003E0606840F0080027
:10473000606070BD70B504460D466C48844202D07E
:104740006B48844200D104E040F23B1169A0FBF7C2
:10475000A7FDA8B2A06070BD10B5044663488442AE
:1047600002D06348844200D104E040F24B1161A0C2
:10477000FBF796FDA06880B210BD2DE9F74F82B01F
:1047800006460C460020E0606060606103E0304651
:10479000FFF7E2FF0746F06810F0040FF7D103209F
:1047A00030623046FFF73FFF072801D9012500E0BE
:1047B0000025049800287AD125B9D4F80890D4F8B7
:1047C00000A003E0D4F808B02068019060E0F06831
:1047D00010F0020F2ED02169606888422AD220682A
:1047E00088B93DB9FF213046FFF7A4FF6068401C3F
:1047F00060601FE04FF6FF713046FFF79BFF606877
:10480000801C606016E055B99AF800103046FFF73A
:1048100091FF0AF1010A6068401C60600AE001989B
:1048200001883046FFF786FF0198801C0190606880
:10483000801C6060D6F8188018F0010F07D048F48B
:10484000007060614FF0FF3005B0BDE8F08F17E0F9
:104850003046FFF781FF0746A06848B125B989F8BF
:10486000007009F1010903E0ABF800700BF1020BD5
:104870001DB9E068401CE06002E0E068801CE06078
:10488000F06810F0040F03D0D4E903018842DFD3AD
:104890002169606888429AD3D4E90301884296D39B
:1048A0004FF480706061206810B16068CCE705E06B
:1048B000A06808B1E068C7E70020C5E704980128B0
:1048C0007FD165E0206828BB3DB9FF213046FFF766
:1048D00031FF6068401C606030E04FF6FF71304689
:1048E000FFF728FF6068801C606027E000800840B8
:1048F000000003404353425C736F757263655C6CE8
:104900007063313778785F7373702E630000000036
:1049100040420F004DB9D4E90002815C3046FFF7F8
:1049200009FF6068401C606008E0D4E90002815A19
:104930003046FFF7FFFE6068801C6060D6F8188084
:1049400018F0010F05D048F4007060614FF0FF309F
:104950007AE715E03046FFF7FFFE0746A06838B15A
:104960001DB9D4E902128F5402E0D4E902128F5229
:104970001DB9E068401CE06002E0E068801CE06077
:10498000F06810F0040F03D0D4E903018842E1D3AA
:10499000F06810F0020F03D021696068884291D35B
:1049A000D4E90301884203D321696068884203D2B5
:1049B0000F20706103E004E04FF48070606100201C
:1049C00042E74FF0FF303FE770B505460C467748A9
:1049D000854202D07648854200D105E040F21D2193
:1049E000AFF2F000FBF75CFC012C07D0022C05D0E5
:1049F000042C03D0082C01D0102C00D105E040F28B
:104A00001E21AFF21010FBF74BFCE868204201D0EA
:104A1000012070BD0020FCE770B504460D46164627
:104A20006248844202D06248844200D105E040F2EC
:104A30003521AFF24010FBF733FC012E03D1606942
:104A40002843606104E060690F21A9430840606168
:104A500070BD70B505460C465448854202D0544896
:104A6000854200D105E040F25221AFF27810FBF709
:104A700017FC012C05D0022C03D0042C01D0082CEB
:104A800000D105E040F25321AFF29810FBF708FC8B
:104A9000A869204201D0012070BD0020FCE710B5BC
:104AA00004464248844202D04148844200D105E095
:104AB00040F26121AFF2C410FBF7F2FBA06910BD18
:104AC00070B505460C463948854202D038488542C3
:104AD00000D105E040F27621AFF2E810FBF7E0FBF1
:104AE000012C05D0022C03D0042C01D0082C00D1BD
:104AF00005E040F27721AFF20420FBF7D1FBE86933
:104B0000204201D0012070BD0020FCE770B50446B2
:104B10000D462648844202D02548844200D105E053
:104B200040F28A21AFF23420FBF7BAFB012D01D00D
:104B3000022D00D105E040F28B21AFF24820FBF7B7
:104B4000AFFB256270BD70B504460D46164617488A
:104B5000844202D01648844200D105E04FF4287107
:104B6000AFF27020FBF79CFB022D01D0012D00D18C
:104B700005E040F2A121AFF28420FBF791FB0EB1DA
:104B8000012E00D105E040F2A221AFF29820FBF700
:104B900087FB012E03D1606A2843606204E0606AEB
:104BA0000321A9430840606270BD000000800840F6
:104BB000000003402DE9F0410446554805680068AF
:104BC0004FF47A71B0FBF1F04FF08071B1FBF0F768
:104BD00038460DF093FF064620460DF08FFF07463E
:104BE00031460EF09FF801D200BFFEE74FF0E02003
:104BF000006940F004004FF0E02108614FF47A7042
:104C0000B5FBF0F06043401E4861BDE8F0812DE93E
:104C1000F04104460D464FF47A70B4FBF0F04FF0CB
:104C20008071B1FBF0F738460DF068FF0646284664
:104C30000DF064FF074631460EF074F801D200BF54
:104C4000FEE74FF0E020006920F004004FF0E02183
:104C500008614FF47A70B4FBF0F06843471E3846A1
:104C60000DF04CFF06464FF47A70B4FBF0F0684349
:104C7000401E4FF0E0214861BDE8F08110B50446C8
:104C80000CB1012C00D103E0862122A0FBF708FB28
:104C9000012C08D14FF0E020006940F001004FF0F6
:104CA000E021086107E04FF0E020006920F00100FA
:104CB0004FF0E021086110BD10B504460CB1012C85
:104CC00000D103E0992113A0FBF7EAFA012C08D1E7
:104CD0004FF0E020006940F002004FF0E021086151
:104CE00007E04FF0E020006920F002004FF0E021E3
:104CF000086110BD4FF0E020806970474FF0E02060
:104D0000006920F480304FF0E02108617047000016
:104D10006C0000104353425C736F757263655C6C8A
:104D20007063313778785F7379737469636B2E635E
:104D30000000000070B5054635B1012D09D0022DE7
:104D40000CD0032D14D10EE00220FFF7F8FA044630
:104D50000EE00420FFF7F3FA044609E02C20FFF7E9
:104D6000EEFA044604E02E20FFF7E9FA044600BFFD
:104D700000BF204670BD2DE9F04781460C464846ED
:104D8000FFF7D8FF0026054600232946A1FB047C37
:104D900006FB04C205FB0321FB4A38460BF030FF3B
:104DA00005462846BDE8F08701464FF0FF30B1F1D7
:104DB000402F01D100200DE0F44A914201D10120A1
:104DC00008E0F34A914201D1022003E0F14A914206
:104DD00000D10320704770B505460C46B5F1402F51
:104DE00008D0EA48854205D0E948854202D0E94822
:104DF000854200D103E0AC21E7A0FBF751FA4CB1AA
:104E0000012C07D0022C05D0032C03D0042C01D098
:104E1000052C00D103E0AD21DFA0FBF741FA2868A3
:104E20000121A1400840C6B20EB1012070BD002092
:104E3000FCE770B505460C46B5F1402F08D0D348C5
:104E4000854205D0D248854202D0D248854200D161
:104E500003E0CA21D0A0FBF723FA4CB1012C07D004
:104E6000022C05D0032C03D0042C01D0052C00D13A
:104E700003E0CB21C8A0FBF713FA2868211D01220B
:104E80008A401040C6B20EB1012070BD0020FCE780
:104E900070B505460C46B5F1402F08D0BB48854299
:104EA00005D0BB48854202D0BA48854200D103E014
:104EB000E321B9A0FBF7F4F94CB1012C07D0022C87
:104EC00005D0032C03D0042C01D0052C00D103E025
:104ED000E421B1A0FBF7E4F90120A040286070BDF7
:104EE00070B505460C46B5F1402F08D0A74885425D
:104EF00005D0A748854202D0A648854200D103E0EC
:104F0000FA21A5A0FBF7CCF94CB1012C07D0022C5B
:104F100005D0032C03D0042C01D0052C00D103E0D4
:104F2000FB219DA0FBF7BCF9201D012181402960D8
:104F300070BD20B90A4601231370536003E00A468E
:104F40000023537000BF70472DE9F04704460D461B
:104F50001646B4F1402F08D08C48844205D08C48C6
:104F6000844202D08B48844200D104E040F23111E7
:104F700089A0FBF795F91DB1012D01D000D000D11A
:104F800004E04FF4997184A0FBF78AF9B4F1402F43
:104F900008D101210220FFF7EFF900210220FFF7DD
:104FA00089F922E07948844208D101210420FFF7E1
:104FB000E3F900210420FFF77DF916E074488442EC
:104FC00008D101218805FFF7D7F900212C20FFF730
:104FD00071F90AE06F48844207D10121C805FFF743
:104FE000CBF900212E20FFF765F9A06A20F003001D
:104FF000A062A06AA0620020A0602061E0606068FA
:1050000040F002006060606820F00200606085B9D6
:105010003746387818B97868401EE06017E02046B7
:10502000FFF7C2FE81467968FFF7A5FE401EE060EB
:105030000DE0B046A06A20F00C00A062464698F849
:105040000100012803D1A06A40F00400A0624FF0E3
:10505000FF302060BDE8F08710B50446B4F1402F62
:1050600008D04A48844205D04948844202D0494881
:10507000844200D104E040F27F1147A0FBF710F911
:1050800000206060B4F1402F04D100210220FFF71E
:1050900073F918E03D48844204D100210420FFF751
:1050A0006BF910E03A48844205D100214FF48000AA
:1050B000FFF762F907E03748844204D100214FF43A
:1050C0008000FFF759F910BD70B504460D46B4F1E4
:1050D000402F08D02D48844205D02D48844202D06C
:1050E0002C48844200D104E04FF4D0712AA0FBF791
:1050F000D7F8012D04D1606840F00100606003E042
:10510000606820F00100606070BD10B50446B4F125
:10511000402F08D01D48844205D01D48844202D04B
:105120001C48844200D104E04FF4DC711AA0FBF764
:10513000B7F8606840F002006060606820F002002C
:10514000606010BD70B504460D46B4F1402F08D024
:105150000E48844205D00E48844202D00D48844255
:1051600000D104E040F2D7110BA0FBF799F82879A1
:1051700040B12879012805D02879022802D0287961
:10518000032817D11CE0000040420F0000800040BF
:1051900000000940004009404353425C736F757240
:1051A00063655C6C7063313778785F74696D6572C4
:1051B0002E6300004FF4EC71AFF22400FBF770F89F
:1051C000287830B1012807D0022808D003280CD154
:1051D00008E0A868A0610AE0A868E06107E0A868A4
:1051E000206204E0A868606201E000BFFEE700BF43
:1051F0006069297801EB4102072191408843606191
:10520000687838B16069297801EB41020121914049
:1052100008436061E87840B16069297801EB410199
:10522000491C01228A4010436061A87840B160693E
:10523000297801EB4101891C01228A4010436061F9
:10524000E06B2978042202EB41020321914088435C
:10525000E063287900F003002978042202EB410181
:105260008840E16B0843E06370BD70B504460E46AC
:105270001546B4F1402F08D04348844205D0434836
:10528000844202D04248844200D105E040F20D2120
:10529000AFF2FC00FBF704F836B1012E06D0022E67
:1052A00006D0032E08D105E0A56107E0E56105E021
:1052B000256203E0656201E000BFFEE700BF70BD4C
:1052C00070B504460D46B4F1402F08D02E488442F4
:1052D00005D02E48844202D02D48844200D105E0FA
:1052E00040F23321AFF25010FAF7DAFFA06A2978C2
:1052F00001EB4102072191408843A062687838B1F0
:10530000A06A297801EB4102012191400843A06283
:10531000A87840B1A06A297801EB4101491C01221B
:105320008A401043A062E87840B1A06A297801EB76
:105330004101891C01228A401043A06270BD70B5F2
:1053400004460D46B4F1402F08D00F48844205D0E2
:105350000E48844202D00E48844200D105E040F25B
:105360004E21AFF2CC10FAF79BFF0DB1012D00D109
:1053700005E040F24F21AFF2E010FAF791FF0DB9CE
:10538000E06A70BD206BFCE700800040000009402F
:10539000004009402DE9F04F8BB0044689460020BB
:1053A0000990FE48844204D10620FEF7C8FF074654
:1053B00016E0FB48844204D10820FEF7C0FF0746F0
:1053C0000EE0F848844204D13020FEF7B8FF0746CB
:1053D00006E0F548844203D13220FEF7B0FF0746CD
:1053E0004FF0FF3B00200790069000252E464FF01F
:1053F00001084DE00020089040E00898404400FB80
:1054000009FC0020010741EA171138070022A0FB20
:10541000083E01FB08E100FB02106246CDE90030C6
:105420000023DDE900010BF0EBFBCDE9040104985A
:105430000390DDF814A00398B0F1004F04D903984D
:10544000404203900AF1010ABAF1000F02D0BAF506
:10545000803F00D90FE0039858450BD2DDF80CB01F
:105460000026554608980790CDF81880BBF1000F2C
:1054700000D106E000BF0898401C089008984045FD
:10548000BBD300BFBBF1000F00D104E008F101085D
:10549000B8F10F0FAED900BF002185EA01007140BD
:1054A000084302D10BB0BDE8F08F3809069900FB24
:1054B00001FC0846079908440021A0FB052301FBD5
:1054C000053100FB06100346CDE9002060460021AF
:1054D0000BF096FB02900298814503D90298A9EB44
:1054E000000B02E00298A0EB090B64200BFB00F01C
:1054F000B0FBF9FBBBF1030F32D2A948844216D1AD
:10550000207B40F080002073280A40EA066020716A
:105510002570207B00F07F002073F021069801EABF
:105520000010079901F00F010843A06216E0207BEC
:1055300040F080002073280A40EA06602071257040
:10554000207B00F07F002073F021069801EA001014
:10555000079901F00F01084384F828000120099001
:1055600009989FE770B504460D468C48844208D0E0
:105570008B48844205D08B48844202D08A488442BA
:1055800000D103E0CF2189A0FAF78AFE687940B103
:105590006879012805D06879022802D06879032843
:1055A00000D103E0D02181A0FAF77AFEA87910B1EA
:1055B000A879012800D103E0D1217CA0FAF770FE80
:1055C000287958B12879012808D02879022805D0EF
:1055D0002879032802D02879042800D103E0D221B9
:1055E00072A0FAF75DFE6D48844203D101210820C4
:1055F000FEF7C2FE6A48844203D101211020FEF763
:10560000BBFE6848844203D101210806FEF7B4FEC0
:105610006548844203D101214806FEF7ADFE60488B
:10562000844221D1072020720020207200E02678D9
:10563000207D10F0010FFAD1802084F8300000BFE7
:10564000207D10F0200FFBD0002084F83000606037
:1056500020732062207484F84C0084F8540084F88D
:105660005000267E267D18E0072020720020207240
:1056700000E02678207D10F0010FFAD1802084F818
:10568000300000BF207D10F0200FFBD0002084F8F8
:105690003000606020732062267D4348844202D13E
:1056A000002084F8240020462968FFF773FE3C4858
:1056B000844203D1207B00F0C00602E0207B00F092
:1056C000C006687930B1012806D0022807D0032827
:1056D00008D108E000BF09E046F0010606E046F008
:1056E000020603E000BF46F0030600BF00BF2879B2
:1056F000C0B146F008062879012806D0022806D055
:10570000032807D004280BD107E000BF09E046F0CA
:10571000100606E046F0200603E046F0300600E002
:1057200000BF00BFA87928B1012802D146F00406C5
:1057300001E000BF00BF00BF1948844201D12673B9
:1057400000E0267370BD70B504460D4613488442D0
:1057500008D01348844205D01248844202D012482F
:10576000844200D104E04FF47C7110A0FAF798FD58
:105770000DB1012D00D104E040F2F1310BA0FAF798
:105780008FFD012D27D1064884421DD194F83000A9
:1057900040F0800084F830002BE0000000C00040A2
:1057A000000001400080094000C009404353425CB2
:1057B000736F757263655C6C7063313778785F7591
:1057C0006172742E6300000094F8300040F0800095
:1057D00084F830000DE0F948844205D194F8300097
:1057E000002084F8300004E094F83000002084F8B1
:1057F000300070BD10B50446F148844208D0EF482F
:10580000844205D0EF48844202D0EF48844200D160
:1058100005E040F29B11AFF26C00FAF741FD002168
:105820002046FFF790FFE648844203D1002108207C
:10583000FEF7A2FDE148844203D100211020FEF7CB
:105840009BFDE048844204D100214FF08070FEF7B8
:1058500093FDDD48844204D100214FF00070FEF733
:105860008BFD10BD4FF416510160032141710021E1
:1058700001718171704770B504460D46D04884426D
:1058800008D0CE48844205D0CE48844202D0CE48CB
:10589000844200D105E040F2DF11AFF2F000FAF7E8
:1058A000FFFCC648844201D1257000E0257070BD20
:1058B00010B50446C248844208D0C048844205D08E
:1058C000C048844202D0C048844200D105E04FF471
:1058D000FC71AFF22810FAF7E3FCB848844201D11A
:1058E000207810BD2078FCE72DE9FF5F80468A46CE
:1058F000934657465C460398012824D100251FE0B3
:105900004FF0FF3905E0B9F1000F00D106E0A9F131
:10591000010998F8140010F0200FF4D000BFB9F17D
:10592000000F00D10EE0102607E017F8011B4046DB
:10593000FFF7A1FF761E641E6D1C0EB1002CF4D182
:10594000002CDDD117E0002512E098F8140010F0CB
:10595000200F00D10EE0102607E017F8011B40468B
:10596000FFF789FF641E761E6D1C0EB1002CF4D16A
:10597000002CEAD100BF284604B0BDE8F09F2DE915
:10598000F05F0746894692469B464E465546BBF118
:10599000010F1DD1002418E04FF0FF3805E0B8F1E9
:1059A000000F00D105E0A8F10108387D10F0010FCB
:1059B000F5D000BFB8F1000F00D108E03846FFF77E
:1059C00077FF06F8010B6D1E641C002DE4D110E07A
:1059D00000240BE0387D10F0010F00D108E03846BC
:1059E000FFF766FF06F8010B641C6D1E002DF1D158
:1059F00000BF2046BDE8F09F10B5044670488442C1
:105A000008D06E48844205D06E48844202D06E4869
:105A1000844200D105E040F28A21AFF27020FAF70B
:105A20003FFC6648844204D1207B40F04000207354
:105A300003E0207B40F04000207310BD2DE9F041D1
:105A400004460D4617465E48844208D05B488442AF
:105A500005D05C48844202D05B48844200D105E016
:105A600040F2B121AFF2BC20FAF71AFC0FB1012FBE
:105A700000D105E040F2B221AFF2D020FAF710FCDD
:105A8000072D15D2DFE805F00406080A0C0E1100F8
:105A900001260DE002260BE0042609E0082607E0B7
:105AA000802605E04FF4807602E04FF4007600BFD8
:105AB00000BF4248844214D15DB1012D09D0022DAE
:105AC00007D0052D05D0062D03D0032D01D0042DC0
:105AD00000D116E040F2CE21AFF23030FAF7E0FB11
